:020000040800F2
:100000008804002001010008090100080B01000814
:100010000D0100080F010008110100080000000098
:1000200000000000000000000000000013010008B4
:100030001501000800000000170100086D0F0008FE
:100040001B0100081B0100081B0100081B01000820
:100050001B0100081B0100081B0100081B01000810
:100060001B0100081B0100081B0100081B01000800
:100070001B0100081B0100081B0100081B010008F0
:100080001B0100081B0100081B0100081B010008E0
:100090001B0100081B0100081B0100081B010008D0
:1000A0001B0100081B0100081B0100081B010008C0
:1000B0001B010008DD1400081B0100081B010008DB
:1000C0001B0100081B0100081B0100081B010008A0
:1000D0001B010008B51800081B0100081B010008DF
:1000E0001B0100081B0100081B010008DFF80CD0F1
:1000F00000F060FB004800477122000888040020DF
:100100000648804706480047FEE7FEE7FEE7FEE7B1
:10011000FEE7FEE7FEE7FEE7FEE7FEE791100008D8
:10012000ED00000880EA010210B502F00043400033
:1001300022D04A001FD0010E01EB1261C0F356001D
:10014000C2F3560240F4000042F40002A0FB022079
:1001500000047F39140400D0401C50EA124001D43E
:100160004000491EC2B20C0604EBD010401C4008EF
:10017000802A02D003E0002010BD20F001000029F9
:1001800000DA0020184310BD30B480EA010202F00A
:10019000004530F0004221F0004013D090B1C30D73
:1001A000D40DC2F31601C0F31600E41A41F40001A5
:1001B00040F400027D34914201D3641C00E0490008
:1001C000002C02DA30BC002070474FF400000023FE
:1001D000914201D3891A034340084FEA4101F7D104
:1001E00051B1914202D14FF0004105E002D24FF0EF
:1001F000010101E06FF0010103EBC450284430BC61
:1002000000F043BA2DE9FE4F804681EA0300C00F9B
:100210000C46009021F0004123F00045B8EB0200AD
:10022000A94105D24046214690461C460B4602464F
:1002300023F00040104347D0270DC7F30A00C3F353
:100240000A510290401A019040286BDAC3F3130060
:1002500040F4801B0098924620B10023D2EB030AA1
:1002600063EB0B0B01985946C0F14002504600F079
:10027000DBF906460D4650465946019A00F0F3F95F
:1002800010EB08006141002487EA115284EAE77309
:100290001A4340D0009A62B3019A012A4FEA0752EA
:1002A00015DC001B61EB02014FF0004202EA07522D
:1002B000CDE90042001C41F5801132462B4600F08A
:1002C0002AFA03B0BDE8F08F40462146F9E7001B4B
:1002D00061EB0201001C41F5801300185B412018FE
:1002E000A2F5001747EB030140EAD570B6196D413E
:1002F00011E06D084FEA360645EAC0754FEA07522D
:10030000001B61EB0201001C41F5801149084FEA16
:1003100030000019514132462B4603B0BDE8F04F82
:1003200000F0EAB90098012240000023D0EB02025D
:1003300063EBE073009821464FEAE074B8EB0000ED
:1003400061EB0401E9E783F000435BE781F00041E2
:1003500058E72DE9FE4F81EA030404F0004421F040
:10036000004100944FF0000B23F0004350EA0104D9
:100370005ED052EA03045BD0C3F30A54C1F30A55BA
:100380002C44A4F2F3340194A0FB0254C1F31301F2
:1003900041F48011C3F3130343F4801301FB0244BF
:1003A00000FB034E840A970A44EA815447EA8357C4
:1003B000A4FB076802958D0A05FB07854FEA932C7D
:1003C00004FB0C542705029D4FEA065847EA1637EE
:1003D000B5EB08056EEB070C870E920E47EA811706
:1003E00042EA8312A7FB0201B6EB0B0164EB0004A7
:1003F0002B0D43EA0C335E1844EB1C50DA46514691
:10040000E7FB0201C5F313044FEA0B3343EA14532D
:100410004FEA0432019C43EA0603A4F10C0402945F
:10042000009CCDE900B400F076F903B0BDE8F08F90
:1004300000200146F9E72DE9F04D81EA030404F0BC
:10044000004B21F0004514464FF0000A23F0004114
:1004500050EA050220D054EA01021DD0C5F30A5724
:100460000246C5F31303C1F31300C1F30A5640F467
:10047000801543F48013A7EB0608101BD64608F23C
:10048000FD3873EB050002D308F1010801E0921872
:100490005B41B8F1000F03DA00200146BDE8F08DA2
:1004A00000204FF48011064684460EE0171B73EBC4
:1004B000050705D3121B63EB050306434CEA010C49
:1004C00049084FEA300092185B4150EA0107EDD12C
:1004D00052EA030012D082EA040083EA05010843CD
:1004E00005D0101BAB4106D20122002306E00022FA
:1004F0004FF0004302E06FF0010253101AEB0600C8
:100500004CEB085110EB0A0041EB0B01BDE8F04D3C
:1005100000F0F2B8C10F80EAE0700844CA079623E1
:10052000002100F0BBB896230022114600F0B6B8B7
:100530000EB5C10F80EAE0700844CA07002140F2FE
:1005400033438DE80E000A460B4600F0E4F803B092
:1005500000BD0EB540F2334102910021CDE90011FA
:100560000A460B4600F0D7F803B000BD20F000406B
:10057000C10DC0F3160040F400007F2901DA00200D
:100580007047962903DCC1F19601C840704796393F
:1005900088407047C1F30A5210B5C1F3130140F20D
:1005A000FF3341F480119A4201DA002010BD40F27D
:1005B00033439A42A2F2334203DC524200F043F842
:1005C00010BD904010BD000030B5041E71F1000454
:1005D00004DB4FF00044404264EB0101141E73F150
:1005E000000405DB1C464FF00043524263EB04035A
:1005F0008B4208BF824230BD30B5041E71F1000449
:1006000004DB4FF00044404264EB0101141E73F11F
:10061000000405DB1C464FF00043524263EB040329
:10062000994208BF904230BD202A04DB203A00FAEC
:1006300002F1002070479140C2F1200320FA03F339
:10064000194390407047202A04DB203A21FA02F037
:100650000021704721FA02F3D040C2F120029140FC
:10066000084319467047202A06DBCB17203A41FA87
:1006700002F043EAE07306E041FA02F3D040C2F12F
:10068000200291400843194670470029A8BF7047CF
:10069000401C490008BF20F00100704710B4B0FAB8
:1006A00080FC00FA0CF050EA010404BF10BC704753
:1006B00049B1CCF1200421FA04F411FA0CF118BF6D
:1006C000012121430843A3EB0C01CB1D4FEA00613C
:1006D0004FEA102042BF002010BC704700EBC3500F
:1006E00010440029A4BF10BC7047401C490008BF3B
:1006F00020F0010010BC704710B5141E73F1000407
:1007000008DA401C41F1000192185B411A4301D103
:1007100020F0010010BD2DE9F04D92469B4611B12D
:10072000B1FA81F202E0B0FA80F220329046FFF78F
:100730007BFF04460F4640EA0A0041EA0B0153469C
:100740005A46084313D0114653EA010019D0C8F1A4
:1007500040025046FFF777FF05460E465046594681
:100760004246FFF761FF084305D0012004E0204620
:100770003946BDE8F08D0020054346EAE0762C437B
:1007800037430A986305E40AA0EB08000022FD0A3B
:1007900044EA47540A3002D500200146E9E7010542
:1007A00010196941DDE9084500196941BDE8F04DBE
:1007B000A2E70000064C074D06E0E06840F00103A8
:1007C00094E8070098471034AC42F6D3FFF792FC48
:1007D000502500087025000870B521F00043034340
:1007E0000CD0C1F30A550024D5EB040564EB0403D7
:1007F000D617AD1AB34102DB0020014670BD2018A8
:1008000041EB025170BD70B5C1F30A5201F00045D1
:100810000024C1F3130140F2FF3341F480119A42E6
:1008200001DA002070BD40F233439A42A2F2334213
:1008300003DC5242FFF707FF00E090402C43F1D069
:10084000404270BD2DE9F35F88B05C4802684368A0
:10085000DDE90801FFF777FD82468B465848594984
:100860000CC803C9FFF775FDCDE902015648574989
:100870000CC803C9FFF76DFD06460F4652465B469E
:10088000534903C9FFF765FD804632463B46FFF7F3
:10089000B9FCCDE90001DDE90223FFF7B3FCCDE9A6
:1008A00006014C49DDE9062303C9FFF7ABFC04460A
:1008B0000D460022134620462946FFF79DFE28D804
:1008C0000022454B20462946FFF77EFE21D8002214
:1008D000134620462946FFF78FFE02D820462946B8
:1008E00002E0204685F0004100223B4BCDE90201A9
:1008F000FFF7A1FD80460022384BFFF72AFD064690
:10090000FFF748FEC0B28DF8140000208DF81500E6
:1009100043E00022324B20462946FFF76DFE28D8DF
:100920000022134620462946FFF74EFE21D2002220
:10093000134620462946FFF75FFE02D82046294687
:1009400002E0204685F000410022234BCDE9020160
:10095000FFF771FD80460022204BFFF7FAFC0646A8
:10096000FFF718FEC0B28DF8140001208DF81500B5
:1009700013E00022184B20462946FFF73DFE06D221
:1009800064208DF8140000208DF8150005E0642027
:100990008DF8140001208DF815000B48D0E90010E7
:1009A000074AC2E900100848C0E900AB094830C056
:1009B000BDF8141008460AB0BDE8F09F18000020EA
:1009C0006800002060000020700000205800002017
:1009D000500000207800002000002840000059400E
:1009E000000028C02DE9F041024600250026002025
:1009F00000230024002791F803C00CF00F0591F8A4
:100A000003C00CF0100CBCF1000F03D091F802C031
:100A10004CEA050591F800C0BCF1000F31D0146814
:100A200000202BE04FF0010C0CFA00F3B1F800C0ED
:100A30000CEA03069E4220D183004FF00F0C0CFA03
:100A400003F7BC4305FA03FC4CEA040491F803C025
:100A5000BCF1280F06D14FF0010C0CFA00FCC2F8D3
:100A600014C00AE091F803C0BCF1480F05D14FF063
:100A7000010C0CFA00FCC2F810C0401C0828D1D3AD
:100A80001460B1F800C0BCF1FF0F34DD54680020E1
:100A90002EE000F1080C4FF0010808FA0CF3B1F851
:100AA00000C00CEA03069E4221D183004FF00F0CD8
:100AB0000CFA03F7BC4305FA03FC4CEA040491F872
:100AC00003C0BCF1280F05D100F1080C08FA0CF89E
:100AD000C2F8148091F803C0BCF1480F07D100F1AF
:100AE000080C4FF0010808FA0CF8C2F81080401CFE
:100AF0000828CED35460BDE8F081416170470161A0
:100B00007047000010B504460C480078012809D150
:100B10002146800700F04BFE00214FF0804000F09E
:100B200048FE09E000214FF0804000F040FE2146E1
:100B30004FF0804000F03DFE10BD0000410000205D
:100B400008B50120ADF8000003208DF80200102048
:100B50008DF803000121042000F0D6F8694604480E
:100B6000FFF740FF01210248FFF7C7FF08BD000063
:100B70000008014070B5002100230F22C47804B39F
:100B8000154C246804F4E064C4F5E064210AC1F162
:100B90000403CA40447804FA03F1847814402143E2
:100BA00009010E4C0678A155047804F01F050124B4
:100BB000AC4005786D11AD0005F1E025C5F80041A8
:100BC00009E0047804F01F050124AC40044D0678C8
:100BD000761145F8264070BD0CED00E000E400E021
:100BE00080E100E002490143024A116070470000C1
:100BF0000000FA050CED00E00FB42DE9FC5FBDF834
:100C00004800FFF7A6FC06460022334BFFF713FC13
:100C1000044622460B46DDE9106730463946FFF7A9
:100C20000AFC82468B46BDF84800FFF792FC064658
:100C30000022294BFFF7FFFB8046DDE90E633246B9
:100C4000FFF787FB0446DDE90C633246FFF7DAFA6B
:100C500052465B46CDE90001FFF7D4FA1F4A03C2B2
:100C6000BDF84800FFF775FC064600221A4BFFF757
:100C7000E2FBCDE90001DDE91063324600204FF0D0
:100C80008041FFF766FB0446DDE90023FFF7D3FB55
:100C900080460B46DDE90CA181F0004142465046FA
:100CA000FFF751FB0E4A03C2BDF84800FFF751FCA5
:100CB00006460022084BFFF7BEFB044622460B46C1
:100CC000DDE9106730463946FFF7B5FB054A03C238
:100CD000BDE8FC1F5DF814FB004CED405000002007
:100CE000580000206000002029B1064AD269024362
:100CF000044BDA6104E0034AD2698243014BDA61B2
:100D0000704700000010024029B1064A9269024370
:100D1000044B9A6104E0034A92698243014B9A6151
:100D2000704700000010024030B50021002200246E
:100D300000232D4D6D6805F00C0121B1042905D06B
:100D4000082923D105E0294D056022E0274D0560E3
:100D50001FE0254D6D6805F47012234D6D6805F494
:100D60008034022505EB92421CB9214D55430560A4
:100D70000BE01D4D6D6805F400351DB11C4D55434C
:100D8000056002E0194D5543056002E0174D05600E
:100D900000BF00BF144D6D6805F0F0010909154D45
:100DA0006B5C0568DD4045600F4D6D6805F4E061E2
:100DB000090A104D6B5C4568DD4085600A4D6D6821
:100DC00005F46051C90A0B4D6B5C4568DD40C56098
:100DD000054D6D6805F44041890B074D6B5CC56896
:100DE000B5FBF3F5056130BD0010024000127A003A
:100DF00000093D000000002010000020F8B5044666
:100E000009254FF47A7105FB01F66FF0040000F03C
:100E100099F804FB06F04FF0E0214861002088615A
:100E20000846006940F002000861FF208DF80000CC
:100E300003208DF8010000208DF8020001208DF8BC
:100E400003006846FFF796FE4FF0E020006940F08F
:100E500001004FF0E0210861F8BD10B500F002F884
:100E600010BD00000CB500200190009033480068D0
:100E700040F480303149086000BF3048006800F419
:100E8000003000900198401C0190009818B901981A
:100E9000B0F5A06FF1D12948006800F4003010B11E
:100EA0000120009001E0002000900098012843D12B
:100EB0002348006840F01000214908600846006897
:100EC00020F0030008600846006840F00200086057
:100ED0001A48406819494860084640684860084612
:100EE000406840F4806048600846406820F47C1008
:100EF00048600846406840F4E810486008460068CA
:100F000040F08070086000BF0C48006800F000707E
:100F10000028F9D00948406820F0030007494860DC
:100F20000846406840F00200486000BF034840683F
:100F300000F00C000828F9D10CBD000000100240A0
:100F400000200240042808D14FF0E021096941F057
:100F500004014FF0E022116107E04FF0E021096940
:100F600021F004014FF0E022116170472DE9F84FA4
:100F70003B48008B4FF4FA7191FBF0F1394800883F
:100F8000401C80B2374A1080814214D13648007824
:100F900038B101213548FFF7B2FD00203249087011
:100FA00006E001213148FFF7A8FD01202E49087015
:100FB00000202C4908802E4800F0CBFA2D49096802
:100FC0004FF4803202FB01002B4908602448008B5B
:100FD0004EF6602191FBF0F63046FFF7A9FA044681
:100FE0000D4625490968254A1268881AFFF7A0FAB4
:100FF000804600224FF08043FFF71DFA0646204A44
:10100000204BFFF718FA824622462B46FFF7A1F93C
:101010001D4A10605160184800681849086001F0C6
:10102000EDF81A4A10605160114608684968FFF7E8
:1010300009FC00909DF8010040B901F0D5F801F0DD
:1010400063F99DF8000001F031F907E001F0CCF8F8
:1010500001F074F99DF8000001F028F9BDE8F88F5F
:101060001024000822000020200000200008014079
:101070000004004048000020280000202400002038
:10108000CDCCCCCCCCE47FC01800002038000020B0
:1010900010B51348006840F0010011490860084687
:1010A0004068104908400E494860084600680E49EB
:1010B00008400B4908600846006820F4802008605A
:1010C0000846406820F4FE0048604FF41F00886026
:1010D000FFF7C3FE4FF000600449086010BD000038
:1010E000001002400000FFF8FFFFF6FE08ED00E0F0
:1010F000F0B50C46154600220021068C4FF6FE770F
:101100003E400684028B018C4FF60C7632407E1CEA
:1011100006EA03162E433243104EB0420ED0104E54
:10112000B0420BD0B0F1804F08D00E4EB04205D087
:101130000D4EB04202D00D4EB04206D14FF6FD76B4
:10114000314044F00106314305E04FF6F576314079
:1011500044F00106314302830184F0BD002C0140BC
:10116000003401400004004000080040000C004032
:10117000F0B50C461546002200210026078C4FF6DC
:10118000EF7C07EA0C070784028B018C4FF6FF7790
:1011900007EA041640F6FF473A404FF6FF7707EAA2
:1011A00003373A434FF6FF7707EA05273A43114FD3
:1011B000B8420ED0104FB8420BD0B0F1804F08D0DB
:1011C0000E4FB84205D00E4FB84202D00D4FB84274
:1011D00006D14FF6DF77394046F01007394305E076
:1011E0004FF65F77394044F010073943028301849A
:1011F000F0BD0000002C014000340140000400401C
:1012000000080040000C0040F0B50C4615460022D6
:1012100000210026078C4FF6FF6C07EA0C070784B5
:10122000828B018C4FF6FF7707EA04264FF60C7786
:101230003A404FF6FF7707EA03172F433A43114F1F
:10124000B8420ED0104FB8420BD0B0F1804F08D04A
:101250000E4FB84205D00E4FB84202D00D4FB842E3
:1012600006D14FF6FF57394046F48077394305E001
:101270004FF2FF57394044F4807739438283018429
:10128000F0BD0000002C014000340140000400408B
:1012900000080040000C0040F0B50C461546002246
:1012A00000210026078C4EF6FF7C07EA0C07078416
:1012B000828B018C4FF6FF7707EA043640F6FF4732
:1012C0003A404FF6FF7707EA05273A434FF6FF7794
:1012D00007EA03373A43114FB8420ED0104FB842D5
:1012E0000BD0B0F1804F08D00E4FB84205D00E4F52
:1012F000B84202D00D4FB84206D14DF6FF773940C3
:1013000046F48057394305E047F6FF57394044F427
:101310008057394382830184F0BD0000002C0140D6
:10132000003401400004004000080040000C004070
:1013300000B589B00620ADF8200003208DF822000A
:1013400018208DF8230027480088ADF818004720A2
:10135000ADF814000020ADF81A00ADF816006020BA
:10136000ADF804000020ADF80C000120ADF8060037
:1013700001210420FFF7C8FC08A91B48FFF732FB36
:1013800001210846FFF7B0FC05A94FF0804000F0AE
:101390003FFA01A94FF0804000F050F901A94FF049
:1013A000804000F0ABF90821C80600F099F9082147
:1013B000C80600F0F3F90121880700F0AFF80B48E8
:1013C00001884FF0804000F0F2F9084801884FF0A2
:1013D000804000F0EEF90121880700F0AEF809B076
:1013E00000BD000042000020000801404400002031
:1013F00000B58BB0C020ADF8280003208DF82A007E
:1014000004208DF82B004FF6FF70ADF8200000206F
:10141000ADF81C00ADF82200ADF81E00ADF81000CC
:10142000ADF81800ADF81200ADF816000120ADF8C7
:1014300014000420ADF804000020ADF80C00ADF855
:101440000600ADF80A000120ADF808001D208DF857
:10145000000001208DF8010000208DF8020001201D
:101460008DF8030001210420FFF74EFC0AA919485A
:10147000FFF7B8FA01210220FFF736FC07A916484A
:1014800000F0C6F904A9144800F078F801A9124840
:1014900000F074F8012211460F4800F0C5F8012150
:1014A0000D4800F047F80C48083000884FF6F871F6
:1014B00008400949083108800846008840F00200C9
:1014C00008806846FFF756FB0121034800F035F815
:1014D0000BB000BD000801400004004010B5012120
:1014E0000C4800F039F8012813D10A48008800F0B0
:1014F000100028B908480068401C0749086004E04B
:1015000005480068401E044908600121014800F0B8
:1015100011F810BD000400404800002021B10288ED
:1015200042F08002028004E002884FF67F731A4086
:1015300002807047CA430282704721B1028842F09C
:101540000102028004E002884FF6FE731A40028016
:1015500070470146888C704730B502460020002352
:101560000024158A05EA0103958905EA010413B1EF
:101570000CB1012000E0002030BD000070B5054630
:101580000C46244885420ED0234885420BD0B5F145
:10159000804F08D02148854205D02148854202D09D
:1015A0002048854200D100E000BF208850B923893F
:1015B000A28861882846FFF79BFDE188284600F055
:1015C000FAF825E0208804280AD12389A2886188B6
:1015D0002846FFF7CDFDE188284600F0F5F817E032
:1015E000208808280AD12389A28861882846FFF725
:1015F0000BFEE188284600F0F4F809E02389A28870
:1016000061882846FFF748FEE188284600F0F2F896
:1016100070BD0000002C0140003401400004004077
:1016200000080040000C00401AB183890B438381FD
:1016300002E083898B4383817047000070B50024EA
:1016400000220023058C4FF6EF7635400584028C8E
:101650008388048B48F6FF752C404FF6FF452C40DD
:101660000D884FF6FF7606EA05252C434FF6DF7509
:101670002A400D8906EA05152A434D8806EA051514
:101680002A43154DA84202D0144DA8421DD14FF651
:101690007F752A404D894FF6FF7606EA05152A43E5
:1016A0004FF6BF752A408D8806EA05152A434FF686
:1016B000FF352B404FF2FF752B408D8906EA8505DB
:1016C0002B43CD8906EA85052B4383800483CD888F
:1016D0000587028470BD0000002C014000340140E9
:1016E0000A460021018B4FF2FF7319404FF6FF733A
:1016F00003EA0223194301837047000070B50024F8
:1017000000220023058C4FF6FF6635400584028CCD
:101710008388848B4FF68F752C404FF6FC752C40D8
:101720000D882C434FF6FF552A400D894FF6FF7662
:1017300006EA05252A434D8806EA05252A43154D64
:10174000A84202D0144DA8421DD14FF2FF752A4085
:101750004D894FF6FF7606EA05252A434FF6FF35F9
:101760002A408D8806EA05252A434EF6FF752B4050
:101770004DF6FF752B408D8906EA05152B43CD8963
:1017800006EA05152B4383808483CD8885870284F0
:1017900070BD0000002C0140003401400A460021C9
:1017A000818B4FF6F773194011438183704701878E
:1017B000704781877047028B4FF6F3731A4002839C
:1017C000028B0A4302837047028B4FF2FF331A40A9
:1017D0000283028B4FF6FF7303EA01231A4302834D
:1017E0007047828B4FF6F3731A408283828B0A43D1
:1017F00082837047828B4FF2FF331A408283828B41
:101800004FF6FF7303EA01231A43828370470000F7
:10181000002202881D4B98420ED01D4B98420BD0DF
:10182000B0F1804F08D01B4B984205D01A4B98421C
:1018300002D01A4B984204D14FF68F731A404B884E
:101840001A43174B984207D0164B984204D04FF6D4
:10185000FF431A40CB881A4302808B8883850B880C
:1018600003850A4B98420BD0094B984208D00E4B87
:10187000984205D00D4B984202D00D4B984201D1B1
:101880000B7A03860123838270470000002C0140FD
:10189000003401400004004000080040000C0040FB
:1018A000001000400014004000400140004401408E
:1018B0000048014010B540F225510B4800F089F86E
:1018C00001280FD1084800F03FF908490870084680
:1018D0000078FEF73EFE064A106051602021024863
:1018E00000F062F810BD0000003801403000002018
:1018F0003800002000B587B04FF40070ADF8180034
:1019000003208DF81A0018208DF81B004FF480601A
:10191000ADF8140003208DF8160048208DF817004C
:101920004FF4165001900020ADF80800ADF80A0001
:10193000ADF80C000C20ADF80E000020ADF8100042
:1019400001210420FFF7E0F906A91548FFF74AF83E
:1019500005A91348FFF746F801218803FFF7D4F9DA
:1019600001A9104800F084F8012240F225510D48E9
:1019700000F059F825208DF8000002208DF80100B4
:1019800000208DF8020001208DF803006846FFF763
:10199000F1F80121034800F010F807B000BD000085
:1019A000000801400038014001F40072B2F5007FE8
:1019B00000D100BFCA430280704721B1828942F43E
:1019C0000052828104E082894DF6FF731A408281C1
:1019D000704770B50246002400230025002040F621
:1019E0006A16B14200D100BFC1F3421501F01F03D6
:1019F000012606FA03F3012D02D19689334006E051
:101A0000022D02D1168A334001E0968A33400C122F
:101A1000012606FA04F41688344013B10CB10120F3
:101A200000E0002070BDF0B503460024002600252C
:101A3000002040F66A17B94200D100BF1846C1F332
:101A4000421401F01F06012707FA06F5012C01D107
:101A50000C3004E0022C01D1103000E014301AB137
:101A600007682F43076002E00768AF430760F0BDD7
:101A70002DE9F04786B005460E460024A24600BF79
:101A8000A1460027B08900B100BF2F462C8A4CF632
:101A9000FF700440F08804432C82AC894EF6F310AA
:101AA0000440B08831890843718908430443AC81FC
:101AB000AC8A4FF6FF400440B0890443AC8201A8D1
:101AC000FFF732F91F48874202D1DDF810A001E08C
:101AD000DDF80CA0A88900F4004040B10AEBCA0070
:101AE00000EB0A1031684900B0FBF1F807E00AEB9F
:101AF000CA0000EB0A1031688900B0FBF1F86420DD
:101B0000B8FBF0F004012009642101FB1089A889C9
:101B100000F4004040B1322000EBC900B0FBF1F00E
:101B200000F00700044308E0322000EB09106421B4
:101B3000B0FBF1F000F00F0004432C8106B0BDE8CB
:101B4000F08700000038014001468888C0F3080093
:101B50007047490050EAC12018BF04204A0D18BF41
:101B600040F0010040F2FF72B2EB515F08BF40F05D
:101B70000200012808BF0520704700002DE9F74F3B
:101B8000144694B00021C4E902111599079121F07F
:101B90000045C9498D4206DC1599C4E9000117B01A
:101BA0000020BDE8F08FC549DFF814A3A9423CDD51
:101BB0000799C44E0029C44FC44A1599534619DDEC
:101BC000FEF7C1FB554506D0C14AC24BFEF7BBFB31
:101BD000C4E900010AE04FF0D352BE4BFEF7B3FB5D
:101BE00032463B46FEF7AFFBC4E9000117B00120C7
:101BF000BDE8F08FFEF706FB554506D0B44AB54B5D
:101C0000FEF700FBC4E900010AE04FF0D352B14BEC
:101C1000FEF7F8FA32463B46FEF7F4FAC4E9000153
:101C200017B04FF0FF30BDE8F08FAB49A9421599CE
:101C300078DB21F0004183468846A84AA84BFEF78E
:101C400088FB0022A74BFEF7DDFAFEF7DCFD0990CA
:101C5000FEF76EFC06460F469C4A5346FEF779FB9C
:101C600043465A46FEF772FB80468A46984A994B8D
:101C700030463946FEF76DFB2A0D01250B92424690
:101C80005346FEF763FB032DC4E9000139D00B98DE
:101C9000C1F30A51401A05EB45111139814230DA7E
:101CA0009148C346784400EB0510CDF80CA00C9089
:101CB000D0E9002330463946FEF74BFB02460B467F
:101CC0000491069058460399FEF73DFB80468A46EC
:101CD00002460B4658460399FEF735FB049B069ACD
:101CE000FEF731FB83460C9803913946D0E9022375
:101CF0003046FEF72EFB5A46039BFEF724FB6D1C75
:101D0000BDE707980028A2BF099817B0BDE8F08F7B
:101D1000616881F000416160099817B04042BDE8F8
:101D2000F08FFFE784461598C1F31301C0F30A5002
:101D3000A0F2F5304FEA601800F01F06C6F120004F
:101D4000139000200690079041F4801E05206D46F8
:101D500076B1664A08EB00017A4452F8213002EB72
:101D60008101B3404A68139922FA01F1194305E051
:101D70005F4908EB0002794451F82210A1FB0E27BD
:101D8000A1FB0C131A449A4234BF0123002303EB36
:101D9000070A05EB8003D3E901B70F448F4234BF34
:101DA0000121002193448B4411B1934502D903E0F2
:101DB000934501D2012100E00021C3E901B751445C
:101DC00045F82010011EA0F10100C1DC0298059F1A
:101DD00000F10050800F12900298DDE90356800058
:101DE000FEF7A6FB834628460D91FEF7B2FB6FF087
:101DF0001D02FEF7F1FCCDE90E013046FEF7A9FB0E
:101E00006FF03D02FEF7E8FC80468A463846FEF752
:101E1000A0FB6FF05D02FEF7DFFC0746424653462B
:101E20001191FEF7EFF9DDE90E23FEF7EBF95A46C3
:101E30000D9BFEF7E7F900250E465A4628460D9BF6
:101E4000FEF781FADDE90E23FEF77DFA424653469E
:101E5000FEF779FA3A46119BFEF778FADFF898A078
:101E6000244A5346FEF775FA07468846234A244B10
:101E700031462846FEF76DFA3A464346FEF7C2F968
:101E8000074688464FF0A842534631462846FEF79B
:101E900060FA3A464346FEF7B5F9159A12F0004F3C
:101EA00004D0129A81F0004152421292C4E900011A
:101EB000129817B0BDE8F08FFB21E93F7CD90240B2
:101EC000FB21F93F7370032E8A19A33B0000405495
:101ED0003163621A61B4D03DFB21394183C8C96DB9
:101EE000305FE43F0000E03FB80700003407000027
:101EF00016070000182D4454FB21F93D3326A61186
:101F0000460B113C2DE9FF4D21F0004807460C46D9
:101F1000B8F1795F08DAFEF776FC002801BF0020EF
:101F2000324904B0BDE8F08D3A46234610461946C2
:101F3000FEF70FFA054602462D480E460B460621CF
:101F4000784400F05DF82A463346FEF702FADDE9F0
:101F5000022382468B4638462146FEF7FAF90446AC
:101F60000F4652465B4628463146FEF7F2F92246B6
:101F70003B46FEF7E8F907468A464FF0FF3228460F
:101F80003146FEF729FC1B4A90450ADA3A46534689
:101F9000FEF7D9F904B00022BDE8F04D134BFEF76F
:101FA000D5B9154A4245A8BFA8F500154FF0000461
:101FB000B8BF124D22462B46FEF7C5F906468846A5
:101FC00022462B4600200949FEF7BDF904460D467E
:101FD0003A46534630464146FEF7B5F904B022462C
:101FE0002B46BDE8F04DFEF7B1B900000000F03F10
:101FF000EC0400003333D33F0000E93F0000D23F40
:102000002DE9F0414F1E00EBC7010446D1E9000164
:1020100015461E4637F006020DD02A463346FEF717
:1020200098F97F1E04EBC703D3E90023FEF7EAF813
:1020300037F00602F1D1022F25D0042F13D0062F3E
:1020400018BFBDE8F0812A463346FEF782F9D4E98D
:102050000A23FEF7D7F82A463346FEF77AF9D4E981
:102060000823FEF7CFF82A463346FEF772F9D4E983
:102070000623FEF7C7F82A463346FEF76AF9D4E985
:102080000423FEF7BFF82A463346FEF762F9D4E987
:102090000223FEF7B7F82A463346FEF75AF9D4E989
:1020A0000023BDE8F041FEF7ADB800002DE9FF4D7B
:1020B000054621F0004084B00C46B0F1795F0BDAA0
:1020C0002846FFF746FD042808BF00F06FF82846B1
:1020D00008B02146BDE8F08D2A460B461046FEF7B3
:1020E00038F906460F462A462346FEF732F980465F
:1020F00026488A4632463B4605217844FFF780FF52
:1021000083461098029160B3214A224B40465146C3
:10211000FEF71FF9CDE900015A4640465146029BA1
:10212000FEF717F982468846DDE906014FF0FF32D7
:10213000FEF752FB52464346FEF705F932463B4650
:10214000FEF707F9DDE90623FEF7FDF8DDE90023D8
:10215000FEF7F9F808B02A462346BDE8F04DFEF731
:10216000F5B80B465A4630463946FEF7F2F8084AAB
:10217000084BFEF747F842465346FEF7EAF808B028
:102180002A462346BDE8F04DFEF73CB82A0400007D
:10219000495555555555C5BF0122FEF71DBB0022B7
:1021A000134610461146FEF746B90000024A0020C9
:1021B0001107FEF711BB000001FDFFFF02E008C898
:1021C000121F08C1002AFAD170477047002001E0B1
:1021D00001C1121F002AFBD17047000001490860AD
:1021E00070470000840000200348007810B90120E7
:1021F0000149087070470000400000202DE9FC5F95
:1022000015480068FEF794F980460022134BFEF74C
:1022100012F90646124A134BFEF79BF8824600F06D
:10222000A7F8114A114BCDE90001FEF792F80446D8
:102230000D4609480068401C0749086008460068C8
:1022400042F21071884202D1002003490860204602
:102250002946BDE8FC9F000080000020004CED40B6
:10226000D7A3703D0AD74240CDCCCCCCCC8C6740B4
:102270001FB54FF4A060FEF7B5FCFEF761FC0A49FC
:10228000088BFEF7BBFDFFF735FBFFF751F8FFF7B3
:10229000AFF8054B10330FCB8DE80F0002480FC885
:1022A000FEF7AAFC00BFFEE7102400082DE9F0416C
:1022B000044611480078E0B1642C00DD64240F4826
:1022C0000088401CFEF726F907462046FEF72BF94A
:1022D00080460B49FDF758FF06463946FDF722FFB9
:1022E0000546FEF743F90749088008460088FEF7CF
:1022F00009FCBDE8F0810000400000204200002001
:102300000000C8424400002010B50948007850B1D0
:10231000084801884FF08040FFF749FA00214FF04C
:102320008040FFF746FA01200349087010BD000005
:1023300040000020440000204100002010B5094862
:10234000007850B100214FF08040FFF730FA064886
:1023500001884FF08040FFF72CFA002003490870F5
:1023600010BD00004000002044000020410000207B
:1023700000B5254B21F0004287B09A4203DC0022D1
:10238000134600922BE0214B9A4208D140B94FF0FE
:102390000100FFF723FFFFF702FF07B000BD03DBDB
:1023A000FFF7FAFE07B000BD02AAFFF7E7FB10F047
:1023B00003014FF001000DD0012914D002291AD0D9
:1023C0000DF1080C9CE80F00FFF79CFD07B081F0B1
:1023D000004100BD0DF1080C00909CE80F00FFF7D4
:1023E00065FE07B000BD0DF1080C9CE80F00FFF77B
:1023F00089FD07B000BD0DF1080C00909CE80F00AE
:10240000FFF754FEE2E70000FB21E93F0000F07F08
:102410009A9999999999C93F00000000000000001D
:1024200000000000000000000100000000000000AB
:102430004C5555555555A53F7751C1166CC156BFE2
:102440009015CB19A001FA3EAD529C804F7E92BEF2
:10245000C4B1B4BD9EEE213ED43888BEE9FAA8BD11
:1024600000004054FB21F93F3163621A61B4D03D52
:102470000000601A61B4D03D7370032E8A19A33B2B
:102480000000002E8A19A33BC14920259A837B397D
:1024900000000000000000006E83F9A22915444EE0
:1024A000D15727FCC0DD34F5999562DB4190433C60
:1024B000AB6351FE61C5BBDE3A6E24B7E0D24D423C
:1024C000EA2E49061C92D1091CEB1DFE3EA729B13C
:1024D000F53582E88444BB2E26709CE9417E5FB4CA
:1024E00039D69139F43953838B5F849C3B28F9BDED
:1024F000FF97F81F0F9805DE8B112FEF1F6D0A5AFB
:10250000CF7E366DB709CB27663F464F2DEA5F9EDB
:10251000C7BA27757BF1E5EBF739073DEA92528A96
:10252000B15FFB6B085D8D1FA6F810111111813F83
:10253000D561C119A0012ABF7DFEB157E31DC73E79
:10254000EB9C2B8AE6E55ABE7CD5CF5A3AD9E53DBD
:10255000702500080000002088000000BC21000851
:10256000F82500088800002000040000CC210008A5
:102570000000000001020304010203040607080929
:102580000204060800000000000000000000000037
:10259000010000000000000000000000000000003A
:1025A000000000000000000000000000000000002B
:1025B0000001F30100000000000000000000000026
:1025C000000000000000000000000000000000000B
:1025D00000000000000000000000000000000000FB
:1025E00000000000000000000000000000000000EB
:0825F0000000000000000000E3
:04000005080000ED02
:00000001FF
